:020000040800F2
:10000000600700208901000883150008B513000867
:10001000811500088F020008F9190008000000008F
:10002000000000000000000000000000B9170008F8
:10003000D1020008000000006F160008BB1700087E
:10004000A3010008A3010008A3010008A301000800
:10005000A3010008A3010008A3010008A3010008F0
:10006000A3010008A3010008A3010008A3010008E0
:10007000A3010008A3010008A3010008A3010008D0
:10008000A3010008A3010008A3010008A3010008C0
:10009000A3010008A3010008A3010008D30200087F
:1000A000A3010008A3010008A3010008A3010008A0
:1000B000A3010008A3010008A3010008A301000890
:1000C000A3010008A3010008A3010008A301000880
:1000D000A3010008A3010008A3010008A301000870
:1000E000A3010008A3010008A301000800F002F822
:1000F00000F03AF80AA090E8000C82448344AAF188
:100100000107DA4501D100F02FF8AFF2090EBAE885
:100110000F0013F0010F18BFFB1A43F0010318473B
:10012000FC1C00001C1D0000103A24BF78C878C1D8
:10013000FAD8520724BF30C830C144BF04680C60ED
:10014000704700000023002400250026103A28BF35
:1001500078C1FBD8520728BF30C148BF0B60704739
:100160001FB51FBD10B510BD00F058F81146FFF7C0
:10017000F7FF01F0B5FC00F076F803B4FFF7F2FFEB
:1001800003BC00F07DF8000009488047094800479B
:10019000FEE7FEE7FEE7FEE7FEE7FEE7FEE7FEE737
:1001A000FEE7FEE704480549054A064B7047000094
:1001B0001D180008ED000008600100206007002005
:1001C00060030020600300204FF0000200B51346DA
:1001D00094469646203922BFA0E80C50A0E80C5067
:1001E000B1F12001BFF4F7AF090728BFA0E80C5018
:1001F00048BF0CC05DF804EB890028BF40F8042B11
:1002000008BF704748BF20F8022B11F0804F18BF7D
:1002100000F8012B7047704770477047754600F033
:100220002BF8AE4605006946534620F00700854688
:1002300018B020B5FFF7B6FFBDE820404FF000062C
:100240004FF000074FF000084FF0000B21F00701BE
:10025000AC46ACE8C009ACE8C009ACE8C009ACE801
:10026000C0098D46704710B50446AFF300802046A4
:10027000BDE81040FFF781BF004870470001002033
:1002800001491820ABBEFEE7260002007047FEE7DA
:1002900000224FF40061014800F026B9000C014033
:1002A0000122D102014800F01FB90000000C0140FA
:1002B00000224FF48061014800F016B9000C0140A3
:1002C00001229102014800F00FB90000000C01402A
:1002D00070474FF4807000F00BB80000B0F5807FDD
:1002E00002D1024901204870704700000000002040
:1002F000044910B50A68024202D00860FFF7EEFF19
:1003000010BD0000140401402DE9F84FDFF8B8914A
:100310000024A9F1040B23460F2709F1040AABF1CD
:10032000040EC9E00125A5402A40AA427DD1674EAE
:10033000D1F804C0ACEB0608B44532D014DCBCF1F3
:10034000030F3AD009DCBCF1000F2AD0BCF1010F39
:100350001CD0BCF1020F31D11DE0BCF1110F17D040
:10036000BCF1120F2AD119E0B8F5881F19D006DCAC
:10037000B8F5803F15D0B8F5801F1FD111E0B8F552
:10038000001F0ED0B8F5041F18D10AE0CB6815E0A5
:10039000CB681B1D12E0CB6808330FE0CB680C3331
:1003A0000CE08B682BB1012B4FF0080303D04561A3
:1003B00004E0042302E0056100E00023FF2A01D8E5
:1003C000064601E000F104064FEA840501D9A5F1D3
:1003D0002005D6F8008007FA05FC28EA0C0803FA85
:1003E00005F548EA0508C6F800804D68ED0062D5BD
:1003F000374DAE6946F00106AE61AD6924F00306E3
:1004000005F001050095334D06EB050CDCF80850AE
:10041000A607360F07FA06F825EA0805DFF8B880C0
:10042000404503D14FF0000817E044E0DFF8AC800E
:10043000404502D14FF001080FE0DFF8A4804045AD
:1004400002D14FF0020808E0DFF89880404502D161
:100450004FF0030801E04FF0040808FA06F848EAF4
:100460000508CCF808804D68D9F80060ED024D46CB
:1004700001D5164300E096432E604D68DAF800601F
:10048000AD02554601D5164300E096432E604D68F7
:10049000DBF80060AD035D4601D5164300E09643EE
:1004A0002E604D68DEF80060ED03754601D51643F9
:1004B00000E096432E60641C0D682A46E5407FF4F8
:1004C00031AFBDE8F88F00000804014000001110B2
:1004D000001002400000014000080140000C0140F3
:1004E00000100140001401400AB101617047090485
:1004F000FBE700000148806870470000080000200A
:100500000248816802781144816070470800002029
:10051000074810B5016841F010010160032000F0A8
:1005200075F80F2000F006F800F024F8002010BD48
:100530000020024070B50D4D04464FF47A712878C2
:10054000B1FBF0F00A490968B1FBF0F000F0A3FD3F
:1005500048B9102C07D200222146501E00F036F870
:1005600000206C6070BD012070BD000008000020FC
:10057000140000200C4808B5816941F00101816137
:10058000816901F001010091C16941F08051C161AF
:10059000C06900F0805000900448416821F0E0619B
:1005A00041F00071416008BD0010024000000140B0
:1005B000002809DB00F01F02012191404009800062
:1005C00000F1E020C0F8001170470000F0B40E4BBD
:1005D0001B680C46C3F30223C3F10705042D00D9A1
:1005E0000425191D072901D2002300E0DB1E012686
:1005F00006FA05F1491E214099409E40761E16409C
:100600003143F0BC01F0F9B90CED00E0064900F00F
:10061000070208684FF6FF03184040EA0220034A29
:1006200010430860704700000CED00E00000FA0580
:100630002DE9F0470F46050061D0434E306800F0C9
:100640000700B84209D2306820F007003843306014
:10065000306800F00700B84251D128683B4C810750
:1006600012D5400703D5606840F4E06060602878E8
:10067000000703D5606840F4605060606068A96856
:1006800020F0F000084360602878C00728D0686830
:10069000012810D02168022810D0890700292EDAFD
:1006A000616821F0030101436160FFF723FF804689
:1006B00041F288390DE021688903EFE78901EDE710
:1006C000FFF718FFA0EB0801494502D90320BDE858
:1006D000F0876068696800F00C00B0EB810FEFD123
:1006E000306800F00700B8420BD9306820F00700EE
:1006F00038433060306800F00700B84201D0012074
:10070000E5E72878400705D56068E96820F4E060EF
:10071000084360602878000706D56068296920F4DE
:10072000605040EAC100606000F018F86168084A53
:10073000C1F30311515CC8400649086006480068CF
:10074000FFF7F8FE0020C2E7002002400010024040
:100750000A1E0008140000200C0000200E4A5168F8
:100760000E4801F00C03042B11D0082B0FD10C48BC
:10077000C1F38343C903C05C0AD55168084AC1F379
:100780004041921E515C054A5043B0FBF1F0704766
:1007900004494843704700000010024000127A00EC
:1007A000FA1D000800093D002DE9F84F040070D043
:1007B0002078C04DC00749D06868C0F38100012887
:1007C00007D06868C0F38100022809D16868C003B7
:1007D00006D52868800339D560680028E7D035E061
:1007E0006068B0F5803F0BD010B1B0F5A02F11D0EC
:1007F000286820F480302860286820F4802002E0F7
:10080000286840F480302860606890B1FFF772FE7D
:1008100006460AE0286840F480202860F0E700BF20
:10082000FFF768FE801B642873D828688003F7D51B
:100830000CE0FFF75FFE064605E000BFFFF75AFE3B
:10084000801B6428F0D828688003F7D420789A4E5B
:1008500080074FF001094FF0000839D5686810F0A3
:100860000C0F07D06868C0F38100022809D16868BE
:10087000C00306D42868800714D52069012808D150
:1008800010E02069B0B1C6F80090FFF733FE0746CC
:1008900005E00AE1FFF72EFEC01B0228C4D8286835
:1008A0008007F7D52868616920F0F80040EAC100A8
:1008B00028600DE0C6F80080FFF71CFE074604E044
:1008C000FFF718FEC01B022823D828688007F7D43A
:1008D000207800072CD57948A169D9B1C0F80090DB
:1008E000FFF708FE074604E0FFF704FEC01B0228DE
:1008F0000FD8686A8007F7D571484FF4FA5100683D
:10090000B0FBF1F0009000BF0098411E0091FAD2B8
:100910000EE080E0C0F80080FFF7ECFD074604E041
:10092000FFF7E8FDC01B022875D8686A8007F7D476
:100930002078400760D5E8690027C00008D4E8693E
:1009400040F08050E861E869012700F08050009095
:100950005C480168C90513D40168834641F480717D
:100960000160FFF7C7FD824606E000BFFFF7C2FD4A
:10097000A0EB0A0064284ED8DBF80000C005F5D5CE
:10098000E06801280AD008B1052813D0286A20F0B1
:1009900001002862286A20F0040002E0286A40F082
:1009A00001002862E06841F2883B98B1FFF7A2FDA0
:1009B00082460BE0286A40F004002862EEE700BFA0
:1009C000FFF798FDA0EB0A0159455AD8286A80071D
:1009D000F6D50CE0FFF78EFD824605E0FFF78AFDB5
:1009E000A0EB0A0159454CD8286A8007F6D41FB1FC
:1009F000E86920F08050E861E06988B36968C1F374
:100A00008101022944D00228C6F8608004D0FFF793
:100A100071FD044638E034E0FFF76CFD074604E062
:100A2000FFF768FDC01B02282BD828688001F7D487
:100A3000206AB0F5803F05D16868A16820F40030D5
:100A400008436860D4E908010843696821F4741117
:100A500008436860C6F86090FFF74CFD044606E066
:100A600025E000BFFFF746FD001B022809D82868D3
:100A70008001F7D51BE000BFFFF73CFD001B0228FB
:100A800002D90320BDE8F88F28688001F4D40EE075
:100A90000128F7D06868226A00F48031914204D1BD
:100AA000616A00F47010884201D00120EAE700205A
:100AB000E8E7000000100240000042428004424289
:100AC000140000200070004070B5040009D0606A76
:100AD000002540B125616561A56294F8510040B1DF
:100AE0000CE0012070BD6068B0F5827FF4D0E56154
:100AF000F2E784F85050204600F040F8022084F8D5
:100B000051002068016821F040010160A08821891E
:100B100000F4827001F404410843A18901F40061EA
:100B20000843217C01F002010843217D01F001010D
:100B30000843218B01F400710843217F01F0380143
:100B4000084394F8201001F080010843218D01F43E
:100B50000051084321680860A069042101EA10409F
:100B6000216848602068C16921F40061C161656540
:100B7000012084F85100002070BD000030B585B020
:100B8000002400940194029403940068144988425C
:100B900023D11448816941F480518161816901F454
:100BA00080510491816941F00401816180690E4D99
:100BB00000F004000490A020009002200190032087
:100BC000039069462846FFF79FFB4020CDE90004CB
:100BD000694628460294FFF797FB05B030BD000038
:100BE0000030014000100240000801402DE9F84F9C
:100BF000044690F851001D4616460F46012838D18C
:100C000060684FF00408B0F5827F01D1A06830B36E
:100C1000FFF770FC8246002F75D0002E73D094F839
:100C20005000012825D04FF0010984F8509084F835
:100C300051804FF00008C4F85480A763A687E68768
:100C4000C4F83080A4F83480A4F83680C4F840801A
:100C5000C4F84480A068B0F5004F0CD015E084F8CB
:100C60005180009313460A46204600F01CF9BDE867
:100C7000F88F0220FBE72068016821F04001016045
:100C80002068016821F480410160206801684906FC
:100C900003D4016841F040010160E068C0B134E074
:100CA00020688168C90709D0007BA16B0870A06B20
:100CB000401CA063E08F401EE08709E0FFF71AFCAC
:100CC000A0EB0A00A84202D3681C01D032E085B331
:100CD000E08F0028E4D11BE020688168C90709D0B3
:100CE000C068A16B0880A06B801CA063E08F401ED1
:100CF000E0870AE0FFF7FEFBA0EB0A00A84203D35F
:100D0000681C02D016E012E09DB1E08F0028E3D10C
:100D100052462946204600F0ABFC08B12020606511
:100D200084F8519084F85080606D00289FD0012095
:100D30009DE7FFE784F8519084F85080032096E700
:100D40002DE9F84F984616468A460446FFF7D2FB2F
:100D5000814694F8510001281ED1BAF1000F73D0DA
:100D6000002E71D094F85000012815D0012784F886
:100D70005070032084F8510000256565C4F830A048
:100D8000A686E686A563A587E58765642564A068D1
:100D9000B0F5004F03D00CE00220BDE8F88F2068CA
:100DA000016821F0400101602068016841F4804140
:100DB000016020680168490603D4016841F04001E0
:100DC0000160E068B0F5006F606803D048B3012EA1
:100DD00027D047E008B1012E1FD1206B2168008881
:100DE000C86006E020688168890709D5216B0988F9
:100DF000C160206B801C2063E08E401EE0860CE00A
:100E0000FFF778FBA0EB0901414503D3B8F1FF3FA1
:100E100003D035E0B8F1000F32D0E08E0028E1D1E8
:100E200023E0206B21680078087306E02068816861
:100E300089070AD5216B09780173206B401C206358
:100E4000E08E401EE0860DE02BE0FFF753FBA0EBA9
:100E50000901414503D3B8F1FF3F03D010E0B8F1D9
:100E6000000F0DD0E08E0028E0D14A4641462046D2
:100E700000F02CFC08B120206065A06830B109E0CA
:100E800084F8517084F85050032086E72068C168C8
:100E90008068009084F8517004F8505F6068002802
:100EA000F3D0012079E72DE9FF4F81B01D4693462D
:100EB00004464FF001090E9EFFF71CFB074694F80D
:100EC00051006168012806D0B1F5827F3CD1A1684C
:100ED000C9BB042838D10298002871D0BBF1000F9B
:100EE000FBD0002DF9D094F8500001282CD04FF001
:100EF000010A84F850A094F85100042802D005207B
:100F000084F851004FF00008C4F85480C4F838B099
:100F1000E587A58702992163E586A586C4F8408008
:100F2000C4F8448020680168490603D4016841F090
:100F300040010160E068B0F5006F606808D0F0B370
:100F4000012D49D081E0FFE7022005B0BDE8F08F18
:100F500008B1012D39D1206B21680088C860206B51
:100F6000801C2063E08E401EE0862EE020688168B1
:100F700089070FD5E18E69B1B9F1010F0AD1216B53
:100F80000988C160206B801C2063E08E401EE086D3
:100F90004FF0000920688168C9070CD0E18F51B17A
:100FA000C068A16B0880A06B801CA063E08F401E0E
:100FB000E0874FF00109FFF79DFAC01B01E00BE04D
:100FC00067E0B04201D3701C50D1E08E0028CDD133
:100FD000E08F0028CAD13EE0206B216800780873BA
:100FE000206B401C2063E08E401EE0862DE02068D0
:100FF000816889070FD5E18E69B1B9F1010F0AD176
:10100000216B09780173206B401C2063E08E401E29
:10101000E0864FF0000920688168C9070CD0E18F95
:1010200051B1C068A16B0870A06B401CA063E08F39
:10103000401EE0874FF00109FFF75CFAC01BB04289
:1010400002D3701C01D011E086B1E08E0028CED111
:10105000E08F0028CBD13A463146204600F036FBDF
:1010600050B12020606584F8508012E084F851A0CF
:1010700084F85080032068E7A06818B92068C16828
:101080008068009084F851A084F85080606D00283A
:10109000F1D0012059E710B5401EB0F1807F01D397
:1010A000012010BD4FF0E02460610F21601700F0B7
:1010B000A4FC0020A06107202061002010BD10B515
:1010C00090F83C20012A22D0012280F83C20CA68F6
:1010D0008C6822F4407222434C6822F480622243DE
:1010E0000C6822F4006222430C6922F480522243ED
:1010F0004C6922F400522243C969002322F4804241
:101100000A4301684A6480F83C30002010BD022088
:1011100010BD000070B590F83C20012A26D00124B3
:1011200080F83C40022280F83D2003685A689D68A0
:1011300022F070060A6832435A600D4B02689A42E8
:1011400008D0B2F1804F05D00A4B9A4202D00A4B28
:101150009A4204D1496825F080031943916080F8D0
:101160003D40002180F83C10084670BD022070BD53
:10117000002C0140000400400008004000B585B08C
:101180000021009101910291039100680B4988426E
:1011900012D10B48816941F004018161806969467F
:1011A00000F0040004904FF4407000900220019081
:1011B00003900448FFF7A8F805B000BD002C0140DB
:1011C000001002400008014070B5044690F83C0051
:1011D00000260D4601280FD0012084F83C006AB19A
:1011E000042A1DD0082A2FD00C2A3FD00126002027
:1011F00084F83C00304670BD022070BD206800F0CD
:1012000059FB2068816941F008018161206881698A
:1012100021F004018161206881692A69114311E08C
:10122000206800F06FFB2068816941F400618161F2
:101230002068816921F480618161206881692A695F
:1012400041EA02218161D2E7206800F087FB206833
:10125000C16941F00801C1612068C16921F0040140
:10126000C1612068C1692A69114311E0206800F05A
:10127000A1FB2068C16941F40061C1612068C169B6
:1012800021F48061C1612068C1692A6941EA0221B3
:10129000C161ACE710B5040003D094F83D0010B173
:1012A00007E0012010BD002084F83C00204600F03B
:1012B0001FF8022084F83D00211D206800F0B0FADC
:1012C000012084F8460084F83E0084F83F0084F84A
:1012D000400084F8410084F8420084F8430084F818
:1012E000440084F8450084F83D00002010BD000053
:1012F00008B500680649884208D10648816941F46A
:1013000000618161806900F40060009008BD000008
:10131000002C01400010024010B50446022249B1E1
:1013200004290ED0082913D094F84100012816D0C2
:10133000012010BD94F83E000128F9D184F83E2028
:101340000FE094F83F000128F2D184F83F2008E034
:1013500094F840000128EBD184F8402001E084F8A3
:1013600041200122206800F097FA0F492068884246
:1013700003D1426C42F4004242642068884208D0A3
:10138000B0F1804F05D00949884202D0084988420F
:1013900004D1816801F00701062903D0016841F0FA
:1013A00001010160002010BD002C0140000400403C
:1013B00000080040FEE700002DE9F04385B000245E
:1013C0002E480094019402940394816941F0100125
:1013D0008161816901F010010491816941F020016E
:1013E0008161816901F020010491816941F004016A
:1013F0008161816901F004010491816941F0080172
:1014000081618069DFF8788000F008004FF40055B2
:101410000490002229464046FFF766F8DFF8649002
:101420004FF44E47002239464846FFF75DF80095D5
:10143000022601250396CDE9015469464046FEF790
:1014400063FF00970396CDE9015469464846FEF7CD
:101450005BFF280200900C48CDE90105694648462B
:10146000FEF752FF002201211720FFF7AFF81720E7
:10147000FFF79EF805B0BDE8F083000000100240C1
:1014800000100140000C0140000021100F4810B571
:101490000D4901604FF48271416000218160C1609B
:1014A0004FF400720161C0E905121822C0E907215A
:1014B000416281620A21C162FFF706FB002801D068
:1014C00072B6FEE710BD0000003001401800002099
:1014D00010B592B000240F941C2168461094FEF7BA
:1014E00073FE202107A8FEF76FFE24482249016001
:1014F0004721C0E9011440F2E731C0E90314446117
:101500008461FFF7C7FE08B172B6FEE70F940FA91A
:101510001A481094FFF7FEFD08B172B6FEE760208E
:10152000CDE90004029403940494059400226946D2
:1015300012480694FFF748FE08B172B6FEE704228F
:1015400069460E48FFF740FE08B172B6FEE7079401
:10155000089409944FF400500A94CDE90B4007A970
:1015600006480E94FFF7ABFD08B172B6FEE70348DC
:10157000FFF704FE12B010BD002C014070000020E7
:10158000FEE7FEE710B5FEF783FE002000F07AFBD1
:101590000021084600F044FB0021012000F040FB40
:1015A0000021022000F03CFB0321084600F038FB3C
:1015B0000021042000F034FB0021052000F030FB66
:1015C0000E21062000F02CFBBDE81040FEF768BE9F
:1015D00038B5044600208DF80000FEF769FE612052
:1015E0008DF800006423012269460948FFF7A8FB33
:1015F0004FF47A73202221460548FFF7F7FAFEF7E9
:101600005FFEE2208DF8000000F0D2FB38BD000044
:101610001800002070B50D460446FEF739FE07207D
:1016200000F030FB2946052000F0FAFA022000F015
:10163000DDFA40F00401022000F0F2FA0522214612
:101640000B2000F003FBEE210C2000F0E9FA202132
:10165000132000F0E5FA002000F0C8FA40F0030182
:10166000002000F0DDFABDE87040FEF719BE7047BB
:10167000F8B5044640684FF48273984217D1A068C9
:101680004FF48065B0F5004F01D0A8420FD120681B
:10169000066826F0400606606068984207D1A06898
:1016A000A84204D100920B460022012103E00092DF
:1016B0000B4600228021204600F022F8002804D0AA
:1016C000606D40F0200060650320F8BDF8B5154658
:1016D0000E460B46009204460122022100F010F84B
:1016E00040B93346002280212046009500F008F8DA
:1016F000002804D0606D40F0200060650320F8BD34
:101700002DE9F8431E46914688460446089DFEF79B
:10171000F1FE401B351AFEF7EDFE0746254800682E
:10172000C0F3CB30684338E0701C37D0FEF7E2FEE0
:10173000C01BA84203D215B1009860B32CE020680A
:10174000416821F0E00141606068B0F5827F0BD113
:10175000A068B0F5004F02D0B0F5806F04D12068CA
:10176000016821F040010160A06AB0F5005F09D175
:101770002068016821F4005101602068016841F48B
:1017800000510160012084F85100002084F85000CD
:101790000320BDE8F8830025401E00902068816882
:1017A00038EA010004D000214945BDD10020F0E70E
:1017B0000121F9E7140000207047FEF7A1BE30B503
:1017C0008FB028216846FEF7FFFC14210AA8FEF717
:1017D000FBFC01210804CDE900100024029402253D
:1017E0000491CDE907504FF4E01009906846FEF7E8
:1017F000DBFF08B172B6FEE70F20CDE90A054FF412
:101800008060CDE90C4002210AA80E94FEF710FF7B
:10181000002801D072B6FEE70FB030BD704700005F
:10182000F0B50268194B1A4C1A4D4FF08047984298
:1018300005D0B84203D0A04201D0A84203D122F083
:1018400070064A683243984205D0B84203D0A0429D
:1018500001D0A84203D122F44074CA6822434C69E3
:1018600022F08002224302608A68C2620A688262B1
:10187000984201D109690163012141610169C907E8
:1018800003D0016921F001010161F0BD002C01408C
:10189000000400400008004010B501F01F030121C2
:1018A000046A99408C430462016A9A4011430162C0
:1018B00010BD000030B5036A026A22F00102026224
:1018C0004268846924F073050C682C4323F00205F8
:1018D0008B682B430A4DA8420BD123F00805CB6837
:1018E00022F440722B434D6923F0040315438A69A7
:1018F0002A434260846149684163036230BD00004D
:10190000002C014030B5026A036A23F01003036221
:10191000436884690D6824F4E64444EA05248D682C
:1019200022F0200242EA05120B4DA8420ED1CD68EA
:1019300022F0800242EA05124D6923F4406343EA33
:1019400085038D6922F0400243EA85034360846188
:1019500049688163026230BD002C014030B5036AE2
:10196000026A22F4807202624268C46923F400733E
:1019700024F073050C682C438D6843EA05230C4D55
:10198000A8420ED1CD6823F4006343EA05234D69D4
:1019900022F4405242EA05128D6923F4806342EA40
:1019A00005124260C4614968C163036230BD000032
:1019B000002C014030B5046A026A22F480520262AF
:1019C0004268C3690D6823F4E64343EA05238D6842
:1019D00024F4005444EA0534064DA84204D14D696C
:1019E00022F4804242EA85124260C3614968016480
:1019F000046230BD002C0140FEE70907090E0028F3
:101A000004DB00F1E02080F80014704700F00F00C4
:101A100000F1E02080F8141D7047000010B50C465E
:101A2000052827D2DFE800F0030B0E111900002271
:101A30001146114800F0A8F80022114614E0224691
:101A4000012104E02246022109E0224602210A483F
:101A500000F09AF82246012106E0224601210648BC
:101A600000F092F8224602210348BDE810401430ED
:101A700000F08AB810BD0000D800002038B5044638
:101A800000200C4D009023464FF4804229460A481E
:101A900000F0A1F80420420300900748234629469D
:101AA000143000F098F8BDE8384000210846FFF7F0
:101AB000B5BF0000000C0140D800002010B504465E
:101AC000072000F093F8410608D510EA440F05D02E
:101AD0004021072000F0A4F8012010BD002010BD17
:101AE000FEF716FDFFF76BFEFFF766FCFFF7CEFC77
:101AF000FFF7EEFCFFF746FD2048FFF7BFFF0A2186
:101B00001F48FFF787FD1D4D1D4C0026DFF8748030
:101B100048354FF40077A41E607840B10220FFF7EB
:101B2000CDFF20B115484830FFF752FD6670287888
:101B300008B1012200E0002239464046FEF7D4FCFD
:101B400068784C2813D008DC42280DD04628E3D111
:101B500021780120FFF762FFDEE752280AD05328E0
:101B6000DAD100210846F5E721780220F2E7217852
:101B70000320EFE721780420ECE70000700000204C
:101B800002000020000C014010B50446427499B1D7
:101B9000012918D002291DD1A18801222068FEF751
:101BA000A3FC607CC0F164005FFA80F2D4E902011A
:101BB000BDE8104000F00AB9A18800222068FEF7B5
:101BC00093FC0022F2E7A18800222068FEF78CFC3B
:101BD000627CEBE710BD30B4029C01608280C0E9FA
:101BE0000234214630BC1846FFF796BB01B582B0DF
:101BF00000208DF80000FEF75BFB6423012202A9A0
:101C00000648FFF79DF86423012269460348FEF762
:101C1000EDFFFEF755FB9DF800000EBD18000020FB
:101C200008B540F020008DF800008DF80110FEF797
:101C30003FFB4FF47A73022269460348FFF780F8AE
:101C4000FEF73EFB08BD00001800002038B540F04C
:101C5000200014460D468DF80000FEF729FB642392
:101C6000012269460648FFF76BF8A2B24FF47A7377
:101C700029460348FFF764F8FEF722FB38BD000051
:101C80001800002000B587B007287FD017287CD027
:101C900008210020FFF7C4FF3F210120FFF7C0FF0C
:101CA00003210220FFF7BCFF03210846FFF7B8FF1E
:101CB00003210420FFF7B4FF02210520FFF7B0FF46
:101CC0000E210620FFF7ACFF00210720FFF7A8FF39
:101CD00000210820FFF7A4FF00210920FFF7A0FF43
:101CE0002FA00522D0E90010CDE9001069460A2096
:101CF000FFF7ACFF2CA00522D0E90010CDE90210BF
:101D000002A90B20FFF7A2FFC3210C20FFF788FFD9
:101D1000C4210D20FFF784FFC5210E20FFF780FFAF
:101D2000C6210F20FFF77CFF1DA00522D0E900107F
:101D3000CDE9041004A91020FFF788FF002111202D
:101D4000FFF76EFF00211220FFF76AFF002113202A
:101D5000FFF766FF00211420FFF762FF0021152026
:101D6000FFF75EFF00211620FFF75AFF1121172011
:101D7000FFF756FF00211C20FFF752FF00211D2016
:101D8000FFF74EFF07B000BD00E002E00021072092
:101D900001E01121172007B05DF804EBFFF740BF09
:101DA000E7E7E7E7E7000000C2C2C2C2C2000000E6
:101DB00001B5FEF77DFA6423012269460248FEF769
:101DC000BFFFFEF77DFA08BD180000200068C36A57
:101DD00053436422B3FBF2F292B239B1042907D023
:101DE000082907D00C2900D102647047426370476C
:101DF00082637047C263704701020203040506074D
:101E000008090A0B0C0D0E0F101000000000000056
:101E10000000010203040607080900003C1E000838
:101E2000000000201800000028010008541E0008CF
:101E3000180000204807000044010008640000DD8D
:101E4000CCBBAA0001000000100000000000000050
:041E500000127A0002
:04000005080000ED02
:00000001FF
